{
  "contractName": "Graph",
  "abi": [
    {
      "anonymous": false,
      "inputs": [
        {
          "indexed": true,
          "internalType": "address",
          "name": "user",
          "type": "address"
        },
        {
          "indexed": false,
          "internalType": "uint256",
          "name": "amount",
          "type": "uint256"
        }
      ],
      "name": "deposit",
      "type": "event"
    },
    {
      "anonymous": false,
      "inputs": [
        {
          "indexed": true,
          "internalType": "address",
          "name": "user",
          "type": "address"
        },
        {
          "indexed": false,
          "internalType": "uint256",
          "name": "amount",
          "type": "uint256"
        }
      ],
      "name": "withdraw",
      "type": "event"
    },
    {
      "inputs": [],
      "name": "TotalbalanceReceived",
      "outputs": [
        {
          "internalType": "uint256",
          "name": "",
          "type": "uint256"
        }
      ],
      "stateMutability": "view",
      "type": "function",
      "constant": true
    },
    {
      "inputs": [],
      "name": "balancenow",
      "outputs": [
        {
          "internalType": "uint256",
          "name": "",
          "type": "uint256"
        }
      ],
      "stateMutability": "view",
      "type": "function",
      "constant": true
    },
    {
      "inputs": [],
      "name": "lockedUntil",
      "outputs": [
        {
          "internalType": "uint256",
          "name": "",
          "type": "uint256"
        }
      ],
      "stateMutability": "view",
      "type": "function",
      "constant": true
    },
    {
      "inputs": [
        {
          "internalType": "address",
          "name": "",
          "type": "address"
        }
      ],
      "name": "userInfo",
      "outputs": [
        {
          "internalType": "uint256",
          "name": "amount",
          "type": "uint256"
        },
        {
          "internalType": "uint256",
          "name": "lastdeposittime",
          "type": "uint256"
        }
      ],
      "stateMutability": "view",
      "type": "function",
      "constant": true
    },
    {
      "inputs": [],
      "name": "Deposit",
      "outputs": [],
      "stateMutability": "payable",
      "type": "function",
      "payable": true
    },
    {
      "inputs": [],
      "name": "getContractBalance",
      "outputs": [
        {
          "internalType": "uint256",
          "name": "",
          "type": "uint256"
        }
      ],
      "stateMutability": "view",
      "type": "function",
      "constant": true
    },
    {
      "inputs": [],
      "name": "getUserBalance",
      "outputs": [
        {
          "internalType": "uint256",
          "name": "",
          "type": "uint256"
        }
      ],
      "stateMutability": "view",
      "type": "function",
      "constant": true
    },
    {
      "inputs": [],
      "name": "Withdraw",
      "outputs": [],
      "stateMutability": "nonpayable",
      "type": "function"
    }
  ],
  "bytecode": "0x608060405234801561001057600080fd5b5061064c806100206000396000f3fe60806040526004361061007b5760003560e01c8063b7013dc11161004e578063b7013dc11461012b578063ce0617ec14610156578063e6bdabae14610181578063ed21248c146101ac5761007b565b80631959a0021461008057806357ea89b6146100be5780636f9fb98a146100d55780637959369814610100575b600080fd5b34801561008c57600080fd5b506100a760048036038101906100a2919061048e565b6101b6565b6040516100b59291906104e1565b60405180910390f35b3480156100ca57600080fd5b506100d36101da565b005b3480156100e157600080fd5b506100ea610313565b6040516100f791906104c6565b60405180910390f35b34801561010c57600080fd5b5061011561031b565b60405161012291906104c6565b60405180910390f35b34801561013757600080fd5b50610140610321565b60405161014d91906104c6565b60405180910390f35b34801561016257600080fd5b5061016b610370565b60405161017891906104c6565b60405180910390f35b34801561018d57600080fd5b50610196610376565b6040516101a391906104c6565b60405180910390f35b6101b461037c565b005b60036020528060005260406000206000915090508060000154908060010154905082565b4260025410156103115760003390506101f1610321565b600160008282546102029190610560565b925050819055508073ffffffffffffffffffffffffffffffffffffffff166108fc61022b610321565b9081150290604051600060405180830381858888f19350505050158015610256573d6000803e3d6000fd5b506000600360003373ffffffffffffffffffffffffffffffffffffffff1673ffffffffffffffffffffffffffffffffffffffff16815260200190815260200160002090506102a2610321565b8160000160008282546102b59190610560565b925050819055503373ffffffffffffffffffffffffffffffffffffffff167ff3fef3a3f44f9c277339b67d54f015748bd8d6b77a985b0ab6e71126b018c34a826000015460405161030691906104c6565b60405180910390a250505b565b600047905090565b60015481565b600080600360003373ffffffffffffffffffffffffffffffffffffffff1673ffffffffffffffffffffffffffffffffffffffff1681526020019081526020016000209050806000015491505090565b60025481565b60005481565b6000600360003373ffffffffffffffffffffffffffffffffffffffff1673ffffffffffffffffffffffffffffffffffffffff168152602001908152602001600020905034600160008282546103d1919061050a565b92505081905550348160000160008282546103ec919061050a565b9250508190555034600080828254610404919061050a565b92505081905550428160010181905550610e1042610422919061050a565b6002819055503373ffffffffffffffffffffffffffffffffffffffff167f47e7ef24b3022e382e65b1298581281f0ae273ac4f76464efcf5b06769264f2f3460405161046e91906104c6565b60405180910390a250565b600081359050610488816105ff565b92915050565b6000602082840312156104a057600080fd5b60006104ae84828501610479565b91505092915050565b6104c0816105c6565b82525050565b60006020820190506104db60008301846104b7565b92915050565b60006040820190506104f660008301856104b7565b61050360208301846104b7565b9392505050565b6000610515826105c6565b9150610520836105c6565b9250827fffffffffffffffffffffffffffffffffffffffffffffffffffffffffffffffff03821115610555576105546105d0565b5b828201905092915050565b600061056b826105c6565b9150610576836105c6565b925082821015610589576105886105d0565b5b828203905092915050565b600061059f826105a6565b9050919050565b600073ffffffffffffffffffffffffffffffffffffffff82169050919050565b6000819050919050565b7f4e487b7100000000000000000000000000000000000000000000000000000000600052601160045260246000fd5b61060881610594565b811461061357600080fd5b5056fea264697066735822122071f52d148ce6e150c16f1917402fdddd924f0de35e7985c6f15fa29d9c1e4e0964736f6c63430008010033",
  "immutableReferences": {},
  "source": "// SPDX-License-Identifier: MIT\n\npragma solidity ^0.8.1;\n\ncontract Graph {\n\n    event deposit(address indexed user, uint256 amount);\n    event withdraw(address indexed user, uint256 amount);\n    \n  struct UserInfo {\n        uint256 amount;\n        uint lastdeposittime;\n        }\n\n    uint public TotalbalanceReceived;\n    uint public balancenow;\n    uint public lockedUntil;\n    mapping(address => UserInfo) public userInfo;\n    function Deposit() public payable {\n        UserInfo storage user = userInfo[msg.sender];\n        balancenow += msg.value;\n        user.amount += msg.value;\n        TotalbalanceReceived += msg.value;\n        user.lastdeposittime = block.timestamp;\n        lockedUntil = block.timestamp + 60 minutes; \n        emit deposit(msg.sender, msg.value);\n    }\n    \n    function getContractBalance() public view returns(uint) {\n        return address(this).balance;\n    }\n    function getUserBalance() public view returns (uint) {\n    UserInfo storage user = userInfo[msg.sender];\n    return user.amount;\n    }\n    function Withdraw() public {\n     if(lockedUntil < block.timestamp)\n        {\n        address payable to = payable(msg.sender);\n        balancenow -= getUserBalance();\n        to.transfer(getUserBalance());\n        UserInfo storage user = userInfo[msg.sender];\n        user.amount -= getUserBalance();\n        emit withdraw(msg.sender, user.amount);\n        }\n    }\n}\n\n",
  "sourcePath": "/home/swiftbike/Documents/Solidity/GraphTest/contracts/Graph.sol",
  "compiler": {
    "name": "solc",
    "version": "0.8.1+commit.df193b15.Emscripten.clang"
  },
  "schemaVersion": "3.4.3",
  "updatedAt": "2021-11-25T16:09:44.308Z",
  "networkType": "ethereum",
  "devdoc": {
    "kind": "dev",
    "methods": {},
    "version": 1
  },
  "userdoc": {
    "kind": "user",
    "methods": {},
    "version": 1
  }
}